:100000003BC000004BC0000049C000000C94B9295F
:100010000C946F2943C000000C94D3283FC000000B
:100020003DC000003BC0000039C0000037C00000E8
:1000300035C0000033C0000031C000002FC00000F8
:100040000C94CE292BC0000029C0000027C000005E
:1000500025C0000023C0000021C000001FC0000018
:100060000C944C291BC0000019C0000017C00000F0
:1000700015C0000013C0000011241FBECFEFCDBF7C
:10008000DFE3DEBF27E3A0E0B4E301C01D92A030B0
:10009000B207E1F70E947F2A0C94C335B1CF80915B
:1000A000AD34811127C08091BF348115B1F090919A
:1000B000A235969596958091A33520E4289F202D12
:1000C0001124292B86958695382F33704AE0429F5C
:1000D000C001439F900D11240895E091AE34E1508A
:1000E000E33040F4F0E0EE0FFF1FED5AF241808163
:1000F0009181089580E090E008958091B834843231
:1001000021F481E080938A3408958F3019F481E0DE
:1001100080938934089508952FB7F8948091410110
:1001200081FDFCCF80914801909149012FBF089536
:1001300080910013909101138535924589F080914B
:1001400003349091043480E0809346018091410112
:1001500080FDFCCF80914001846080934001089530
:1001600090910213892F91380CF481E82091033487
:100170003091043497FFE8CF81958068E5CF81E026
:10018000809300068FE08093010684E0809302064E
:1001900080E18093080682E380930C0681E18093DE
:1001A0000A068091050680FFFCCF2FB7F894809156
:1001B000100690911106A0911206B09113062FBF60
:1001C000209100062E7F209300062091211140915E
:1001D000201132E0B695A795979587953A95D1F776
:1001E000BC01621B710927FD73959B01A42FB0E030
:1001F0000E94193560587F4F8F4F672F782F6A52B2
:100200007140669F9001679F300D300D1124C90128
:10021000880F991F880F991FA901481B590BCA0104
:10022000232B69F422E330E0820F931F64E670E031
:100230000E944835609303347093043479CF2EECD8
:100240003FEFF2CF9091A5089370933039F1880F6A
:100250008093A7088091A50885FD0DC08091A50811
:1002600082FD09C08091A50883FD05C08091A50885
:100270008370833079F78091A5088C7129F480917F
:10028000A5088370833061F48091A4088360809313
:10029000A4088091A50883708130D9F780E0089583
:1002A00081E00895FC019E2F981B961710F081E0C5
:1002B000089591919093A8089091A50895FD0DC07F
:1002C0009091A50892FD09C09091A50893FD05C0E5
:1002D0009091A5089370933079F79091A50894FFB9
:1002E000E2CF80E00895CF93DF9300D000D00F924B
:1002F000CDB7DEB769834A835B832C83A3DF81118B
:1003000010C09091A40893609093A4089091A508C0
:1003100093709130D9F72596CDBFDEBFDF91CF9195
:10032000089561E0CE010196BDDF8D836C818A81E5
:100330009B81B8DF9D8189239091A408936090935D
:10034000A4089091A50893709130D9F7E4CFCF938A
:10035000DF9300D00F92CDB7DEB769837A834B83EA
:1003600071DF811110C09091A40893609093A4084C
:100370009091A50893709130D9F70F900F900F903E
:10038000DF91CF9108956B8189819A818BDF909164
:10039000A40893609093A4089091A508937091305D
:1003A000D9F7EBCFCF93DF9300D0CDB7DEB78983FA
:1003B0006A8342E0BE016F5F7F4F8BE6C8DF0F901C
:1003C0000F90DF91CF9108959C0128573109213872
:1003D0003C4030F468E270E00E9434358DE0E2CFBA
:1003E00008959C0180910A1490910B1428173907E5
:1003F00008F4C9012091F9363091FA368217930733
:1004000029F08093F9369093FA36DECF0895CF9392
:10041000DF9300D00F92CDB7DEB7898376276727A9
:1004200076276A837B8343E0BE016F5F7F4F8BE655
:100430008EDF0F900F900F90DF91CF9108959C0168
:100440002456310921383C4030F46AE070E00E94C3
:10045000343586E0DCCF0895CF93DF9300D0CDB75D
:10046000DEB789836A8342E0BE016F5F7F4F8DE212
:100470006EDF0F900F90DF91CF9108956CEC8EE0BE
:10048000EBDF63E080E0E8DF60E081E0E5DF64E689
:1004900084E1E2DF69E185E1DFDF62E386E1DCDF61
:1004A00067E082E0D9DF65E58FE0D6DF62E080E0DB
:1004B000D3CFEF92FF920F931F93CF93DF93F82E3A
:1004C000162FD42FC22F80916734823009F5809186
:1004D00068348F111DC080916934861319C08091D2
:1004E0006A34811115C080916B348F3F89F48091FB
:1004F0006C3484130DC080916D34821309C08091D7
:100500006E34801305C080916F348E1509F452C08B
:1005100063E080E0A1DF6AEA81E19EDF61E08AE0DA
:100520009BDF63E08CE098DF6E2D8CE195DF602F20
:100530008DE192DF6FEF8EE18FDF6FEF8FE18CDF68
:1005400060E080E289DF60E081E286DF60E082E2F5
:1005500083DF6D2F83E280DF6C2F84E27DDF8F2DC0
:1005600081958470612F660F682B84E075DF60E0F1
:1005700088E172DF60E089E16FDF60E08AE16CDFD3
:1005800065E58FE069DF6FEF80E166DF82E08093F1
:100590006734F09268341093693410926A348FEFA4
:1005A00080936B34D0936C34C0936D3400936E346D
:1005B000E0926F34DF91CF911F910F91FF90EF90F8
:1005C00008950F931F93CF93DF9300D00F92CDB771
:1005D000DEB7082F162F4B832A8380916734833030
:1005E000A9F480916834801311C080916934861316
:1005F0000DC080916A34841309C080916B348F3FA1
:1006000029F480917034821709F457C063E080E0C8
:1006100023DF6AEA81E120DF61E08AE01DDF63E039
:100620008CE01ADF60E08CE117DF6FE08DE114DF12
:1006300060E08EE111DF6FEF8FE10EDF6FEF80E2A0
:100640000BDF60E081E208DF60E082E205DF9A8193
:100650009A5F8A818295807F982B9983692F83E2A4
:10066000FBDE698184E2F8DE612F660F8B81682BE7
:10067000802F81958470682B84E0EEDE60E088E155
:10068000EBDE60E089E1E8DE60E08AE1E5DE65E579
:100690008FE0E2DE6FEF80E1DFDE83E0809367349E
:1006A00000936834109369349B8190936A348FEF80
:1006B00080936B348A81809370340F900F900F90E9
:1006C000DF91CF911F910F9108956AEA81E1C4DE15
:1006D00060E084E0C1DE65E58FE0BEDE62E080E0E0
:1006E000BBCE80916734811579F0EFDF60E088E15F
:1006F000B3DE60E089E1B0DE60E08AE1ADDE62E0B9
:1007000080E0AADE1092673408951F93CF93DF93A1
:10071000182FD62FC42F811108C0611106C04111B6
:1007200004C0DF91CF911F91DCCF8091673481307D
:1007300081F48091683418130CC080916934D81307
:1007400008C080916A34C81304C080916B348F3F15
:10075000E1F0BBDF6C2F619588E17EDE6D2F619546
:1007600089E17ADE612F61958AE176DE63E080E0DF
:1007700073DE81E08093673410936834D0936934DA
:10078000C0936A348FEF80936B34DF91CF911F91C8
:100790000895CF93DF9300D000D0CDB7DEB7698343
:1007A0004B835C832A834EDD811111C08091A408A4
:1007B00083608093A4088091A50883708130D9F765
:1007C00080E02496CDBFDEBFDF91CF91089561E038
:1007D000CE01019667DD81110BC08091A408836072
:1007E0008093A4088091A50883708130D9F7E8CF61
:1007F0009091A70891609093A7089091A4089160A8
:100800009093A4089091A50895FD0DC09091A5081E
:1008100092FD09C09091A50893FD05C09091A5088F
:100820009370933079F79091A5089C7129F42091E9
:10083000A5082370233021F483E08093A408C0CF5F
:1008400020E22093A508EB81FC8132E02091A508ED
:1008500025FD0DC02091A50822FD09C02091A50805
:1008600023FD05C02091A5082370233079F720913E
:10087000A80820839F5F2A81291721F031963093A1
:10088000A408E4CF97E09093A4089091A408936003
:100890009093A4089091A50893709130D9F791CFC7
:1008A000CF93DF930F92CDB7DEB721E0AE014F5F5C
:1008B0005F4F682F8BE66DDF811529F089810F90DE
:1008C000DF91CF91089581E08093FF3680E0F7CFEC
:1008D000CF93DF9300D00F92CDB7DEB789836B83C0
:1008E0004A83DEDF9A816B81682B911104C09B8162
:1008F0009095692F682389810F900F900F90DF9159
:10090000CF9150CD40E060E28FE0E2CF41E060E285
:100910008FE0DECF40E060E482E1DADF60E087E490
:1009200041CD482F6CE086E1D3CF41E060E88EE214
:10093000CFCF8BE1B5DF8695817008958BE1B0DF75
:1009400082FB882780F90895CF93DF930F92CDB76C
:10095000DEB780E2A5DF898381E2A2DF29812F77DC
:100960008F7D922F0F90DF91CF910895CF93DF93DA
:1009700000D0CDB7DEB722E0AE014F5F5F4F682FEA
:100980008BE607DF811551F089819A8198278927A5
:1009900098270F900F90DF91CF91089581E0809379
:1009A000FF3680E090E0F5CFCF93DF9300D00F9239
:1009B000CDB7DEB78FE174DF8A838CE171DF898385
:1009C0008A81897049F040E060E081E00F900F90EB
:1009D0000F90DF91CF9199CE2A81267081E08B8391
:1009E000211101C01B8283E3C1DF3091FB36363019
:1009F00069F5813328EF9207C4F089312CEF920713
:100A0000B4F0919581959109843F914064F025E07F
:100A1000363081F441E06B8180E00F900F900F90B1
:100A2000DF91CF91CECD27E0F3CF21E0F3CF23E0CC
:100A3000F1CF21E0898182958695877040E061E061
:100A4000873011F480E0C2CF8B81E7CF803D27E073
:100A500092077CF7883E23E09207B4F223E0EACFC6
:100A6000EF920F938091FB368630F1F040F48530A1
:100A7000F1F0813079F0C0F40F91EF9032CE8730F1
:100A8000E1F08830C9F7E12C0FE022E042E060E0BD
:100A900081E006C0E12C0FE022E042E061E080E06E
:100AA00008DD0F91EF9008950F91EF907DCF41E019
:100AB00060E081E00F91EF9028CEE12C0FE025E07F
:100AC00045E0E5CF942FA901292F0DCC942FA90142
:100AD000292F5FCECF92DF92EF92FF920F931F9359
:100AE000CF93DF93CDB7DEB72997CDBFDEBF698344
:100AF0007A838B839C834D832E833F832EE034E364
:100B000028873987E12CF12C670180910E34C816B3
:100B1000D104E104F10460F02996CDBFDEBFDF917E
:100B2000CF911F910F91FF90EF90DF90CF9008959C
:100B3000E885F98581819281A381B48129813A81F7
:100B40004B815C8182239323A423B523892B8A2B99
:100B50008B2B69F0278130850580F681E02D0E8191
:100B60001F814D8169817A818B819C8109953FEF3D
:100B7000C31AD30AE30AF30A48855985485F5F4FD1
:100B800048875987C2CFCF93DF930F92CDB7DEB797
:100B90008091C134811114C08091C6348F5F8093DD
:100BA000C63481E08093C134809197348064898316
:100BB0009E012F5F3F4F41E069E080918E3482DFDC
:100BC0000F90DF91CF910895CF93DF93E9E6F5E39E
:100BD000A1E1B5E3813021F0E5E8F5E3A3E1B5E378
:100BE00080910B3590910C358D939C9392959770D5
:100BF000A5E1B5E39F0180E0891312C090E0873042
:100C0000D9F480819181A281B3818093A935909399
:100C1000AA35A093AB35B093AC35DF91CF91089551
:100C20004D915D916D917D91E9014993599369933E
:100C300079939E018F5FE0CFDC01AA0FBB1FAA0F43
:100C4000BB1FAE0FBF1F1D921D921D921D920196DC
:100C5000D6CF807E803E51F0803C51F0803A51F0FA
:100C6000803851F0803641F08FEF089580E008958C
:100C700081E0089582E0089584E00895CF93DF93A2
:100C80000F92CDB7DEB781E09091BE34913009F478
:100C900080E08093BE349091913480FB94F99093DE
:100CA000913480918E34898321E934E341E063E01B
:100CB00009DF80910435813071F4809195348C7F07
:100CC0008093953425E934E341E067E089810F9012
:100CD000DF91CF91F7CE0F90DF91CF910895CF9311
:100CE000DF930F92CDB7DEB7E1E7F4E384A1846030
:100CF00089839E012F5F3F4F41E067E0858DE2DEF3
:100D00000F90DF91CF910895CF93DF930F92CDB7DE
:100D1000DEB7E1E7F4E383A1806489839E012F5F5E
:100D20003F4F41E066E0858DCDDE0F90DF91CF91A2
:100D30000895CF93DF930F92CDB7DEB792E09983FA
:100D4000811541F09E012F5F3F4F41E06CE08091A3
:100D50008E34B8DE81E080930A35109211361092FD
:100D6000073510921436E5E9F6E385E0DF011D92C0
:100D70008A95E9F745E050E06FEF70E08AE996E385
:100D80000E94BC351092123610920F361092133614
:100D90001092C4341092BF341092A1351092A23533
:100DA0001092A3351092A43510921135109212357D
:100DB0001092133510921435E9E6F5E385E895E3D2
:100DC0001192119211921192108E118E128E138E19
:100DD0008E179F07A9F71092AA360F90DF91CF9137
:100DE00008958093B8341092B9341092113610924D
:100DF00007351092093520E030E040918E34C9016A
:100E000060E270E067CECF93C82F109289341092C1
:100E10008A3410928534109286341092873410925E
:100E200088341092C1341092C2341092C63480912A
:100E3000BC34813009F061C07CDF8091B0348130F6
:100E400009F04AC080919034837F8460809390340D
:100E5000809191348C7F81608093913481E0809384
:100E6000BB34C093BD34C093BE34C093C334C115EA
:100E700009F445C086E0B5DF8091913480698093A4
:100E80009134809195348C7F809395348091913406
:100E90008B7F80939134809194348D7F80939434B0
:100EA00080919734816080939734C0918E3424E987
:100EB00034E344E066E08C2F05DE21E934E341E0D1
:100EC00063E08C2FFFDD1092CB361092CC3610925F
:100ED000C9361092CA360FC0823059F480919034CE
:100EE000837F886080939034809191348C7F82607E
:100EF000B3CF8111B3CF1092A734CF9108958EE173
:100F000070DF1092C1361092C2361092BF36109226
:100F1000C036809191348F7680939134809195344E
:100F20008C79B2CFCF93DF930F92CDB7DEB780919C
:100F3000953484FF0AC08F7E8093953425E934E38D
:100F400041E067E080918E34BDDD1092C134109293
:100F5000C23481E08093A73480918C34809304352F
:100F6000809305351092BB3410920A3580E039DF4A
:100F70001092BD341092BF3486E59EE08093B43465
:100F80009093B53420E030E040918E34C90160E0A8
:100F900071E0A0DD20E030E040918E34C90160E1D5
:100FA00070E098DD80919134887F809391348091B6
:100FB0008E34898321E934E341E063E083DD80916D
:100FC0009934807F87608093993429E934E341E044
:100FD0006BE0898177DD83DE97DE809198348260D3
:100FE0008093983428E934E341E06AE089816ADD3E
:100FF00080919C34856180939C342CE934E341E0FA
:101000006EE089815FDD80919D34816080939D34A5
:101010002DE934E341E06FE0898154DD8091A5340E
:1010200080628093A5340F90DF91CF910895CF9384
:10103000C0911835C295CF7020E030E040918E34D9
:10104000C90160E072E046DDE091A435E295E77009
:1010500084E0E89FF0011124E853FB4C3181369580
:101060003695228180E4829F802D1124832B269542
:101070002695922F9370C53051F48436910529F44A
:1010800085E7AFDE81E080930A35CF9108958436FD
:10109000910569F5C0918E3480918F34807F8038BE
:1010A00051F58FE58093983428E934E341E06AE014
:1010B0008C2F08DD8EEF80939C342CE934E341E0E3
:1010C0006EE08C2FFFDC80919D34816080939D3495
:1010D0002DE934E341E06FE08C2FF4DC809195340E
:1010E00084608093953486E77CDE10920A3581E037
:1010F0008093A734CACF80919734806280939734CD
:1011000027E934E341E069E08C2FDCDCECCFCF93BE
:10111000DF9300D000D0CDB7DEB78B839C8369838B
:101120007A830E948C00EB81FC818083918389818A
:101130009A818283938384E084832496CDBFDEBF2B
:10114000DF91CF910895CF93DF93EC018A819B814A
:10115000892B21F480E0DF91CF9108950E948C00CB
:1011600028813981821B930B2A813B818217930747
:1011700088F38C819FEF980F9C83811104C01A82A1
:101180001B821882198281E0E6CFCF93DF9300D0D3
:1011900000D0CDB7DEB78B839C830E948C008983FF
:1011A0009A83EB81FC8182819381009781F0CF014A
:1011B000CADF811112C0EB81FC8180819181228183
:1011C0003381820F931F29813A81821B930B2496CE
:1011D000CDBFDEBFDF91CF91089581E090E0F7CFE2
:1011E000CF93DF930F92CDB7DEB784E08093B23414
:1011F0001092B3341092AD348091B4349091B534E0
:1012000064EA71E00E94343561506F7360648091CC
:1012100092348078862B80939234809198348F75A5
:1012200080688093983480918E34898322E934E3F6
:1012300041E064E047DC28E934E341E06AE0898189
:1012400041DC9091B03480919034913079F58E7B6F
:1012500081608093903420E934E341E062E0898149
:1012600031DC1092AE3485E08093A8348093A934A9
:101270008093AA348093AB348093AC341092B73609
:101280001092B8361092B5361092B6361092AD362E
:101290001092AE361092AB361092AC366AE770E020
:1012A00080EB96E30F90DF91CF9131CF8D77826005
:1012B000D0CF9091AF3482E0923041F083E0933010
:1012C00029F081E0913009F080E08370880F880F69
:1012D00090919434937F892B8093943424E934E360
:1012E00041E066E080918E34EDCB80919434869518
:1012F000869583709DE3833009F095E28091923466
:10130000807C892B8093923422E934E341E064E0CD
:1013100080918E34D7CB80911236811509F44BC061
:101320001092123680910C35982F9077D9F4E09175
:101330000B35EF71E350E23138F5F0E0EB53FA4C46
:101340000C947D3587E04DCD84E1FDCF87E1FBCF67
:1013500081E3F9CF8DE2F7CF84E0F5CF88E3F3CFD7
:1013600085E0F1CF87FF12C0309115353093F1360B
:10137000209116352093F236832F922F91704B9740
:1013800018F081E08093F33686E3DDCF80910B3552
:101390008F71833079F038F4813009F498C082304D
:1013A00099F78BE0D0CF843009F491C0863061F793
:1013B00088E1C9CF3CCE8091C434811531F1E091F0
:1013C0000F35EF71809110358077D9F4E250EC3011
:1013D00038F4F0E0E952FA4C0C947D3581E101DDFE
:1013E0001092C434089585E1FACF82E1F8CF83E109
:1013F000F6CF80E3F4CF86E1F2CF8CE2F0CF85E048
:10140000EECFE13069F787E0EACF809106358115AC
:1014100039F08EEC96E397DE811511F083E093CFDF
:101420008091A9359091AA35A091AB35B091AC359A
:10143000892B8A2B8B2BE9F480910935813081F43B
:101440008FEB96E380DE811509F441C01092C1361E
:101450001092C2361092BF361092C03681E173CF1F
:1014600064E170E08FEB96E352DE81E08093093512
:10147000089580917334823051F4809189348115BC
:1014800031F08091AC3585FF02C080E35CCF809164
:101490008634813031F48091BE34813011F486E19C
:1014A00052CF80918834813031F48091C3348130BF
:1014B00011F48CE248CF81E08093A7348091AF345F
:1014C000833029F083E08093AF34F3DE0ECF0895AC
:1014D0008091943486958695837099E0823039F0B6
:1014E00092E1833021F095E2813009F494E080911B
:1014F0009234807C892B8093923422E934E341E05A
:1015000064E080918E34DECA8091903483FF0BC0FA
:10151000837F84608093903420E934E341E062E08B
:1015200080918E34CFCA82FFF7CF837F8860F2CF5D
:101530008091A3088E7F8093A30881E08093250487
:1015400085E192E09093270422E42A95F1F700C008
:101550008150C1F78091A30881608093A3080C9407
:101560003E02CF93DF93C82F8091FB368C1709F48E
:1015700078C0C093FB361092F6361092F736109270
:10158000F4361092F536811101C0D2DFC730C8F4AD
:10159000EC2FF0E0ED51FA4C0C947D35B3D9BAD96B
:1015A00040E060E88EE294D91092FD361092FE364B
:1015B0001092F9361092FA3694D863E38DE00E94C7
:1015C0002C02DF91CF914CCA1092FC3683E168D98E
:1015D000682F6F7B606883E10E94D20180910814BC
:1015E000909109140E941F02A0D98091080483FFE2
:1015F00004C080911014811521F388D9E2CF83E1D2
:101600004FD9682F6F77606483E10E94D2010E94F6
:101610004F000E941F0268EB7BE084EF96E377DDCA
:10162000D0CF1092FC360E944F00EC01C43F81E005
:10163000D80759F441E060EC81E14AD976D9DDCF91
:101640001092FC360E944F00EC0140E060E481E122
:101650003FD9CE010E941F02F1CF54D9B2CF65D934
:10166000B0CFDF91CF910895CF93DF93EC018091BC
:10167000FD369091FE368C179D0709F458C0C09333
:10168000FD36D093FE36209709F44AC08091FC368F
:10169000811521F087E0DF91CF9163CF4FD9811180
:1016A00046C030D983E1FCD8682F6F77606483E14E
:1016B0000E94D2018091F9369091FA36892B51F42B
:1016C00080910A1490910B148093F9369093FA3616
:1016D0000E94E40180910E1490910F14853F21E047
:1016E000920710F4C80FD91FCE01805F9A40813055
:1016F0002BE4920798F46AE070E00E9434358BE0A6
:101700000E94070260EE87E40E94D20141E060E49B
:1017100082E1DED841E060E483E1DAD886E0BBCF45
:10172000F9D88091FB36863011F480E0B4CFDF9198
:10173000CF91089580E090E097CF8091080483FFD7
:1017400008C080911014811104C085E00ADF81E097
:10175000089580E0089590E022E42A95F1F700C012
:101760009F5F8913F9CF0895EF92FF920F931F9314
:10177000CF93DF9300D000D0CDB7DEB7082F109203
:1017800013361092C6361092C7361092C436109295
:10179000C53624EA34E341E061E480918E3496D981
:1017A0008091A43485FD3FC0011112C09E012F5FBE
:1017B0003F4F43E063E480918E3488D98A818093DF
:1017C0000B358B8180930C35898143DA80930F36FA
:1017D0002091AA3690910C35892F807771F58091F0
:1017E0000B358F71813149F521112BC08091BE34A9
:1017F0008295880F807E2091A536822B8093A53616
:101800008091A6362091BD34822B9E70892B8093C7
:10181000A63620EA36E34AE063E480918E3452D95A
:1018200081E08093AA362496CDBFDEBFDF91CF91B1
:101830001F910F91FF90EF900895211102C086E44F
:101840008ADF1092AA3680910F368F3F61F3209184
:101850000C35022F007790E001111AC030910B3542
:101860003F713D30A9F4FC01EB56F94C10828656CD
:10187000994C2FEFDC012C9381E0809312369E016E
:101880002F5F3F4F44E063E480918E341FD93CC00A
:1018900026952770FC01E656F94C80812817190619
:1018A00021F0208381E08093123680918E340111E3
:1018B00013C010910B351F71113009F79E012F5F76
:1018C0003F4F44E063E402D910930A3585E08093EA
:1018D00011361092123653CF40910C3546954695ED
:1018E0004C714C5F25E536E363E4F0D880910C350C
:1018F0008295877025E536E360E070E0AB0148171C
:1019000051056105710580F180910C35807709F4EE
:1019100044C080910B358F718F3009F03EC08091AB
:1019200015358034D0F584E616DF22EA34E343E04F
:101930006FE380918E34CAD88091A23480FF06C0B4
:101940008091A43485FD02C080E00EDF80911236C4
:10195000811509F468CF80911136823009F063CF88
:1019600088E0809311365FCF7901B0E4EB1AB1E0E3
:10197000FB0A8901E0E0F0E0D8019D918D01D701DB
:101980009D937D013196E430F105B1F74F5F5F4FD4
:101990006F4F7F4F2C5F3F4FB2CF23EA34E342E0DB
:1019A00060E480918E3492D88091A33480749091B9
:1019B000A4349072892B51F682E3CDDE23EA34E31E
:1019C00042E060E480918E3481D88091A3348074A9
:1019D0009091A4349072892B09F0B8CF81E0809364
:1019E0001336B4CFCF93DF9300D0CDB7DEB790914D
:1019F0001136913041F482E080930A350F900F90B8
:101A0000DF91CF9108958091A53480712091133694
:101A1000822BB1F080919F36811519F075D9109203
:101A20009F3680911236811107C09EDE8091A534C9
:101A30008F7E8093A534E2CF81E080931336F6CF7A
:101A40009230E1F680911236811521F088E0809382
:101A50001136D4CF10929F36809110368A83813010
:101A600009F46EC0823009F46FC022E183E192E193
:101A700032E13093153620931636909317368093C3
:101A8000183640910D3580910E359A81292F30E01E
:101A9000982F907769F4942F9F719D3049F4F90144
:101AA000EB56F94C10829FEFF901E656F94C908302
:101AB0002B56394CD9019C919770990FE82FE17FF3
:101AC0008E2F892BE695E695EC7192E09E0F90683B
:101AD0009093193640931A3697E09093143680937A
:101AE0001B36807709F445C021E335E3E95F87E0E1
:101AF000E8132DC0AE2FB0E0AB5EB94C8FEF8C93E6
:101B0000A1E0AE0FB0E0AB5EB94C84E18C9323E072
:101B10002E0F20931436EE5FF0E0EB5EF94C8EEF63
:101B20008083B0918E34B98345E156E363E48B2F13
:101B30000E94730181111FC081E080939F3686CF80
:101B400022E19BE18BE194CF2BE192E1FBCFA90154
:101B5000982F84E0890FDA016D91AD01A92FB0E0D3
:101B6000AB5EB94C6C939F5F8913F5CF2C5F3F4FF1
:101B7000BFCFE7E0BFCFEA8180910435E11531F0B6
:101B8000FA81F150F23020F480910535823009F06D
:101B900083E0880F8160877090919734987F892BBC
:101BA0008093973427E934E341E069E089810E941A
:101BB00062058091943481608093943424E934E305
:101BC00041E066E089810E946205809194348E7FB5
:101BD0008093943483E08093113685E080930A35B6
:101BE0006EE170E084EC96E30F900F90DF91CF915F
:101BF0008ECACF93DF9300D0CDB7DEB769834A8317
:101C000090911136963009F483C090F4953009F420
:101C100074C09130E8F009F053C08091BD34811553
:101C200009F494C083E0DDD881E0809311365FC071
:101C3000973009F480C0983081F78091BD348115C8
:101C400009F486C08FE0CDD81092113683E05BC0D6
:101C500010920D3510920E358F7180930D35211530
:101C6000D9F08FEF820F823040F181E08295880FAA
:101C7000880F807C90910D359F73892B80930D3553
:101C80002093103682E08093113680910A3581309E
:101C900009F4A8DE80E037C09091BE3490FB85F94E
:101CA00080930D3580910E359091BD3490FB80F975
:101CB00080930E3580910435D9CF80910535D6CFEC
:101CC00084EC96E340DA8115A1F01092C6361092AA
:101CD000C7361092C4361092C53681E080930A351B
:101CE0001092113689817DD88A818093B93482E03F
:101CF0000AC081E08093A734CDCF898172D88A81D0
:101D00008093B93481E00F900F90DF91CF910895C7
:101D10008091B834853019F483E063D8E8CF8C31F2
:101D200011F48AE1FACF8091BD34811511F085E07C
:101D3000F4CF8CE1F2CF8091C5348F5F8093C534AE
:101D4000843008F06ACF10921136A4CF8AE16BCFAD
:101D500084E279CFCF93DF930F92CDB7DEB7809136
:101D6000B934823009F44AC0A0F4811120C020E0C7
:101D700041E06CE28BE03DDF813009F03BC0109226
:101D8000883460E270E08FEB96E30F90DF91CF91A3
:101D9000BEC9833009F45CC0843009F492C020E0ED
:101DA00040E06FE086E00F90DF91CF9122CF8091ED
:101DB00012368115A9F01092123680910C35807779
:101DC00051F480910B35982F9F718771843069F0A1
:101DD00082E09330F9F085E00F90DF91CF9101C858
:101DE0008FEB96E3B0D9811511F08FE0F5CF81E04C
:101DF0008093A7340F90DF91CF9108958091C334E1
:101E0000811559F06CE570E08FEB96E380D98091F5
:101E1000B9348F5F8093B934EDCF81E08093C334C0
:101E200080910435823069F4809195348C7F809361
:101E3000953425E934E341E067E080918E340E94D7
:101E4000620564E170E08FEB96E361D984E0E2CF54
:101E500080911236811569F11092123680910C35FD
:101E6000807741F680910B358F71863019F680911D
:101E700090348F7C8093903480918E34898320E9D4
:101E800034E341E062E00E9462051092C334809125
:101E90000435823009F0A9CF809195348C7F8093EE
:101EA000953425E934E341E067E089810E946205C9
:101EB0009CCF8FEB96E347D9811509F498CF83E047
:101EC0008BCF8FEB96E33FD9813009F090CF809193
:101ED000B9348F5F8093B93462CFCF93DF930F9281
:101EE000CDB7DEB78091B934823009F442C058F4DE
:101EF000811112C020910F3641E06DE283E00F9016
:101F0000DF91CF9176CE833009F473C020910F36E4
:101F100040E06FE086E0F3CF8091C334811571F02B
:101F20006CE570E08FEB96E3F2D88091B9348F5F67
:101F30008093B9340F90DF91CF91089581E0809321
:101F4000C33480910435823069F4809195348C7F5C
:101F50008093953425E934E341E067E080918E3445
:101F60000E94620564E170E08FEB96E3D0D883E0D5
:101F7000DFCF80911236811589F11092123680914F
:101F80000C358077B9F680910B358F71863091F6DC
:101F9000809190348F7C8093903480918E348983AB
:101FA00020E934E341E062E00E9462051092C3340C
:101FB00080910435823061F4809195348C7F8093D8
:101FC000953425E934E341E067E089810E946205A8
:101FD0008FE00F90DF91CF910C94F1068FEB96E399
:101FE000B2D8811511F083E0F4CF81E08093A7345B
:101FF000A1CF8FEB96E3A7D88130B9F78091B934A0
:102000008F5F8093B93482CFEF920F93CF93DF939A
:102010000F92CDB7DEB7298390911136963009F42F
:10202000A1C098F4953009F48EC09130F8F009F011
:102030006DC08091BD34811509F4ACC083E00E946D
:10204000F10681E08093113678C0973009F475C0AD
:10205000983079F78091BD34811509F499C08FE0EB
:102060000E94F1061092113683E035C0942F990F2B
:10207000990F907790930E358F7180930D35E11401
:1020800081F18FEF8E0D8230D8F181E08295880F3B
:10209000880F807C90910D359F73892B80930D352F
:1020A000A1E3B5E3FB018E2F861B841760F18091BD
:1020B000B834873029F48091C7348F5F8093C73458
:1020C000E092103682E08093113680910A3581309B
:1020D00009F488DC80E00F90DF91CF910F91EF90B1
:1020E00008952091BE3420FB85F980930D358091B1
:1020F000BD3480FB90F990930E3580910435C6CFA6
:1021000080910535C3CF81918D93CDCF84EC96E33B
:102110001AD88115A1F01092C6361092C7361092C7
:10212000C4361092C53681E080930A35109211367C
:1021300089810E94F1060093B93482E0CCCF81E01E
:102140008093A734C7CF89810E94F1060093B934E8
:102150001092C6361092C7361092C4361092C53609
:1021600081E0B9CFE110E9CF8091B834873041F4F4
:102170008091BF34811104C088E00E94F106DDCF58
:102180008091BD34811511F085E0F7CF8CE1F5CF5A
:1021900084E266CF8AE153CFEF92FF920F931F93B1
:1021A000CF93DF9300D000D0CDB7DEB77E018FEFA5
:1021B000E81AF80A970143E063E480918E340E94A4
:1021C00066050A811B8189810E942906E82F812FDB
:1021D00080779701811134C0402F4F71413081F5D4
:1021E00080918E34EF3F59F0F0E0EB56F94C90813E
:1021F00016951770692F70E016171706A1F044E0C6
:1022000063E40E94660586E08093113681E0809346
:102210000A352496CDBFDEBFDF91CF911F910F917C
:10222000FF90EF9008959F5F9770908340930A35D9
:1022300095E09093113644E063E40E946605E9CF8F
:1022400081E080930A3586E08093113600930B3548
:1022500010930C35E0930F3681E02496CDBFDEBF9E
:10226000DF91CF911F910F91FF90EF907DCACF9397
:10227000DF93D0919234D6FF0CC08D2F8F7B80934B
:10228000923422E934E341E064E080918E340E948C
:10229000620589E160DA23EA34E341E060E4809199
:1022A0008E340E9466058091A334C0E085FD3FC056
:1022B0008091903482FF04C09091B034913031F01D
:1022C00083FF10C08091B034823061F4C0919434A7
:1022D000C695C695C3708FEF8C0FCF5F833038F1F2
:1022E000C5E025C0F5D889E136DA23EA34E341E0D8
:1022F00060E480918E340E9466058091A334C1E031
:1023000085FF0BC0C0919434C695C695C3708FEFFE
:102310008C0FCF5F833008F0C5E0D093923422E970
:1023200034E341E064E080918E340E9462058C2F9A
:10233000DF91CF91089589E10EDA23EA34E341E099
:1023400060E480918E340E946605E091A334E370CE
:10235000E33029F0F0E0E05BF2418081089584E011
:1023600008958091AD34813010F011F480CFE3CF27
:1023700085E00895CF9380918F34807F803889F1F4
:1023800084EC8093903420E934E341E062E0809172
:102390008E340E946205E5DFC82F8EEF8C0F8330EC
:1023A00020F180918F34807F8038E9F088EC809331
:1023B000903420E934E341E062E080918E340E9461
:1023C0006205CFDF9EEF980F933088F0C13029F07F
:1023D000C1E0813009F0C0E0CC0FC093B034CF91A0
:1023E000089584E4CECF88E8E2CFC1E0F6CFC2E022
:1023F000F4CFB7DF9091AD34911109C09091B23410
:10240000943029F09DEF980F923008F482E090917B
:10241000A834981741F08093A8346FE070E08BEAFD
:1024200096E30E9487088BEA96E30E94A308811531
:1024300061F08091A8348093AA341092AD36109246
:10244000AE361092AB361092AC368091AA34909191
:10245000AB34981759F08093AB346BE670E080EBA7
:1024600096E30E94870885E08093A93480EB96E389
:102470000E94A308811561F08091AB348093A93448
:102480001092B2361092B3361092B0361092B13626
:102490000895CF93C091903437D880918F34807F46
:1024A0008038D1F48091B034813021F181E090E026
:1024B0008295880F880F807C90FD80689091903481
:1024C0009F73892B8093903420E934E341E062E0EC
:1024D00080918E340E94620544DF8093AC34C093B7
:1024E000903420E934E341E062E080918E34CF9172
:1024F0000C94620580E091E0DBCF81E08093AD3405
:1025000085E08093A8348093A9348093AA34809383
:10251000AB348093AC340E9459090E9475098091B4
:102520009934807F87608093993429E934E341E0CE
:102530006BE080918E340E9462058091B0348111ED
:1025400001C018DF80918F34807F9091B03491303A
:10255000F1F4803801F184EC8093903420E934E385
:1025600041E062E080918E340E94620592DF109219
:10257000AE341092AD361092AE361092AB36109249
:10258000AC366AE770E080EB96E30C9487088038FD
:1025900021F088ECE1CF84E4DFCF88E8DDCF0E9432
:1025A000840ADFDE8093AC340C94840A1F93CF93AB
:1025B000DF9300D00F92CDB7DEB764EA71E00E94DE
:1025C00034356F73862F80648A83982F9F7329F028
:1025D00061506F73807C862B8A83909192348A81BC
:1025E00010E0981761F09E012E5F3F4F41E064E0DC
:1025F00080918E340E94620583E2ADD811E09E0185
:102600002F5F3F4F41E060E480918E340E94660569
:10261000898185FB882780F98B83113041F422E979
:1026200034E341E064E080918E340E9462058B8146
:102630000F900F900F90DF91CF911F910895CF933E
:10264000DF930F92CDB7DEB78091B934813009F4B2
:102650009CC0823009F4BFC08111D9C080919834E8
:102660008D7E8093983480918E34898328E934E379
:1026700041E06AE00E94620580919C34827E8093F2
:102680009C342CE934E341E06EE089810E946205CC
:1026900080919D348E7F80939D342DE934E341E019
:1026A0006FE089810E94620580918F34807F80383D
:1026B00009F05FC08091953482FF0AC08B7F8093C0
:1026C000953425E934E341E067E089810E946205A1
:1026D0001092A1351092A2351092A3351092A43514
:1026E0001092A9351092AA351092AB351092AC35E4
:1026F0001092C234109208351092C13481E0809358
:10270000BD34109206358091913480688093913465
:1027100021E934E341E063E089810E94620580E0C1
:102720000E949906809191348460809391348091C5
:102730008E34898321E934E341E063E00E9462053D
:10274000809199348F608093993429E934E341E092
:102750006BE089810E9462051092C7341092C534E3
:102760008091B9348F5F8093B9340F90DF91CF910E
:1027700008958091973485FFABCF8F7D80939734F8
:1027800027E934E341E069E0A0CF8EE892E10EDF73
:10279000811104C08091B2348E3099F489EC96E3B3
:1027A0000E94A308811106C08091CB369091CC364F
:1027B000892B39F465E070E08FEB96E30E9487087F
:1027C000CFCF6AE070E083ED96E30E94870881E056
:1027D0008093A734CACF8FEB96E30E94A30881159C
:1027E000B1F31092C1361092C2361092BF361092D9
:1027F000C0361092CB361092CC361092C936109259
:10280000CA3687E00F90DF91CF910C94F1061092B9
:10281000B934ABCF88E493E0C9DE91E0892708950D
:10282000CF93DF930F92CDB7DEB78091B93482306A
:1028300009F48EC090F5811144C08FEB96E30E949D
:10284000A308811509F4AFC01092BF3480918C3475
:10285000809304358093053586E59EE08093B434FB
:102860009093B53420E030E040918E34C90160E0AF
:1028700071E00E946A0520E030E040918E34C90189
:1028800060E170E00E946A058091B9348F5F8093A7
:10289000B9340F90DF91CF910895833009F487C048
:1028A00088E893E10E94340B81E08093C334109256
:1028B000CB361092CC361092C9361092CA3686E0CA
:1028C0005BC00E949A0B0E948A0481E00E949104DE
:1028D0008091BE3481111DC081E08093BE3480910F
:1028E000913480618093913480918E34898321E981
:1028F00034E341E063E00E946205809195348C7F6F
:102900008093953425E934E341E067E089810E94B2
:1029100062058091C334811569F0809190348F7C79
:102920008093903420E934E341E062E080918E347A
:102930000E9462050E9484060E946F0681E00E9448
:1029400099066FE675E08FEB96E30E9487089CCFAF
:1029500061DF811531F080E00E94910463EB72E049
:10296000F2CF8FEB96E30E94A3088115B1F080911E
:10297000BF34811531F081E00F90DF91CF910C943D
:10298000F10684E08093B9341092C1361092C236B9
:102990001092BF361092C0367CCF6AE070E083EDB3
:1029A00096E30E94870881E08093A73472CF8FEB73
:1029B00096E30E94A3088115B1F366CF0F931F938E
:1029C000CF93DF938091B934823009F469C058F411
:1029D000811130C020E041E06EE083E0DF91CF91D3
:1029E0001F910F9106C9833009F467C0843009F440
:1029F00002C120E040E06FE086E0FBD8813009F0C2
:102A000044C08091AF34823039F082E08093AF349B
:102A10000E9459090E94750921EA35E340918E34DC
:102A200068E070E080E090E0DF91CF911F910F911E
:102A30000C946A05209115359091163580911735C3
:102A4000E09118352093A1359093A2358093A3355A
:102A5000E093A435E295E77024E0E29FF0011124B1
:102A6000E853FB4C8381807CC1E0803C99F0C0E05E
:102A700069E170E08FEB96E30E9487088091B9349A
:102A80008F5F8093B934C0930635DF91CF911F914A
:102A90000F91089580910635811551F383E0F1CFB0
:102AA0008FEB96E30E94A308811509F4EEC0809194
:102AB000B9348F5F8093B934E8CF81E08093BF341D
:102AC000E091A435E295E770CFEFCE0F44E0C49FCC
:102AD000F0011124E153FB4C808182958695869507
:102AE000837009F05FC09091163596959695809108
:102AF000173520E4289F202D1124292B86958695B3
:102B0000382F33705AE0529FC001539F900D11240B
:102B10000E94F10184E0C89FF0011124E353FB4CB3
:102B2000308136953695218180E4829F802D112455
:102B3000832B26952695922F93708436910509F55F
:102B400088E893E10E94340B88E893E10E94340BFB
:102B500066E671E08FEB96E30E9487088091B934B6
:102B60008F5F8093B934809106358115D9F160E08B
:102B700078E38EEC96E3DF91CF911F910F910C9447
:102B8000870845E0489F9001499F300D1124C901F5
:102B90009595879524E1AC01249FC001259F900D58
:102BA0001124D4CF8330A1F690911635969580915B
:102BB000173580FB222727F9292B8695382F377068
:102BC00054E1529FC001539F900D11240E94340B79
:102BD000809115358F7722E3829FC00111240E94D6
:102BE000F101B6CF1092D0361092D1361092CE3677
:102BF0001092CF364ACF8FEB96E30E94A308811143
:102C000056CFE091A435E295E770E15044E0E49FAF
:102C1000D0011124A153BB4C8C9182958695869549
:102C20008370B9F554E0E59FF0011124E353FB4CA8
:102C3000908196959695818120E4289F202D1124DE
:102C4000292B86958695382F337082E3829FE00189
:102C5000839FD00D1124CE0164E170E00E943435D1
:102C60008B01CE018C559E4F860F971F9FDC8111E3
:102C700006C0CE01801B910B99DC811118CF6AE050
:102C800070E083ED96E30E94870881E08093A7348B
:102C9000FCCE8330A1F79091A23596958091A33513
:102CA00080FBCC27C7F9C92B8695D82FD77084E134
:102CB0008C9F80018D9F100D1124CE018C559E4F4D
:102CC000800F911F73DC8111DACFC8018C1B9D0B23
:102CD000D3CF81E08093A63486E08093B234109203
:102CE000B3340BDC88E893E10E94340B40918E34BE
:102CF0008091B034813081F461E070E080E090E058
:102D00009C010E946A0581E00E94030760E072E076
:102D100085EB96E30C94870862E070E080E090E039
:102D2000EFCFCF93DF930F92CDB7DEB78091923480
:102D30008F7B8093923422E934E341E064E0809118
:102D40008E340E94620588E893E10E94340B86E08D
:102D50008093B2341092B33481E08093AD3485E037
:102D60008093A8348093A9348093AA348093AB34A1
:102D70008093AC340E9475099091B0348091903466
:102D80009130A1F58E7B80648093903480918E3455
:102D9000898320E934E341E062E00E94620580918A
:102DA00098348F7D8093983428E934E341E06AE0D9
:102DB00089810E9462051092AE341092B73610924B
:102DC000B8361092B5361092B6361092AD361092D3
:102DD000AE361092AB361092AC366AE770E080EBFC
:102DE00096E30F90DF91CF910C9487088D778068E0
:102DF000CBCFCF93DF930F92CDB7DEB70E949A0B64
:102E00001092AD3485E08093A8348093A9348093E8
:102E1000AA348093AB348093AC3480919934807F12
:102E200087608093993480918E34898329E934E3D3
:102E300041E06BE00E9462058091B034811168C06E
:102E400087E08093903420E934E341E062E08981B7
:102E50000E94620586DA8250833008F045C081E026
:102E60008093B03487E08093903480918E3489834E
:102E700020E934E341E062E00E9462058091B434CD
:102E80009091B53464EA71E00E94343561506F73FB
:102E90006064809192348078862B80939234809104
:102EA00098348E7D8093983422E934E341E064E0E5
:102EB00089810E94620528E934E341E06AE0898162
:102EC0000E9462056CDB1092AD361092AE36109205
:102ED000AB361092AC366AE770E080EB96E30F9069
:102EE000DF91CF910C9487088BE08093903420E998
:102EF00034E341E062E080918E340E94620531DA71
:102F00008250833028F482E08093B0348BE0ABCFE2
:102F10008091B0348130D1F7A5CF81E08093A63481
:102F200086E59EE08093B4349093B5341092B63425
:102F300084E08093B2341092B3345BDF40918E34DE
:102F40008091B034813011F561E070E080E090E074
:102F50009C010E946A05EFD992E0833039F093E03A
:102F6000843021F091E0823009F090E08093A83421
:102F70009093AE3480E00E9403071092B73610920F
:102F8000B8361092B5361092B636089562E070E009
:102F900080E090E0DDCFCF93DF930F92CDB7DEB727
:102FA0001092A6348FEF8093983480918E34898369
:102FB00028E934E341E06AE00E9462058FEF8093E4
:102FC0009C342CE934E341E06EE089810E94620583
:102FD00080919D34816080939D342DE934E341E0FC
:102FE0006FE089810E9462050E94920788E08093C9
:102FF000B2341092B334FDDE1092B7361092B83668
:103000001092B5361092B6360F90DF91CF91089599
:10301000CF93DF930F92CDB7DEB70E949A0B80E07B
:1030200090E00E94340B0E9492078FEF80939834B7
:1030300080918E34898328E934E341E06AE00E947C
:1030400062058FEF80939C342CE934E341E06EE01D
:1030500089810E94620580919D34816080939D34B6
:103060002DE934E341E06FE089810E94620580919F
:10307000B234823039F1809196348E7F80939634C9
:1030800080919434837F8093943424E934E343E043
:1030900066E089810E9462051092903420E934E351
:1030A00041E062E089810E94620580919934807FCD
:1030B00081608093993429E934E341E06BE08981B0
:1030C0000E94620580918B34823039F0833029F080
:1030D00091E0813009F090E0892F8093AF3485E052
:1030E0008093A8348093A9348093AA348093AB341E
:1030F0008093AC341092B0341092AD361092AE364C
:103100001092AB361092AC361092B2361092B336A3
:103110001092B0361092B13620E030E04981C901FA
:1031200064E070E00F90DF91CF910C946A052F92CC
:103130003F924F925F926F927F928F929F92AF9247
:10314000BF92CF92DF92EF92FF920F931F93CF9394
:10315000DF93E091B834EC3710F00C944A26F0E09D
:10316000E651FA4C0C947D3581E08093A63480932F
:10317000B2341092B3346EE170E085EB96E30E94B6
:103180008708DF91CF911F910F91FF90EF90DF9013
:10319000CF90BF90AF909F908F907F906F905F90F7
:1031A0004F903F902F9034CFDF91CF911F910F918F
:1031B000FF90EF90DF90CF90BF90AF909F908F9057
:1031C0007F906F905F904F903F902F900C94C3052D
:1031D0008091B934811126C020E041E065E08DE0A6
:1031E0000E94F90DC82F813051F460E270E08FEB3E
:1031F00096E30E948708C0930735C093A734DF91F8
:10320000CF911F910F91FF90EF90DF90CF90BF90E3
:10321000AF909F908F907F906F905F904F903F9076
:103220002F90089580911236811511F40C949124F9
:103230001092123680910C35807709F0D3C08091BE
:103240000B358F71833009F0CDC088E0DF91CF91CD
:103250001F910F91FF90EF90DF90CF90BF90AF90B4
:103260009F908F907F906F905F904F903F902F90A6
:103270000C94F10620910F3640E067E083E006C22F
:10328000DF91CF911F910F91FF90EF90DF90CF9042
:10329000BF90AF909F908F907F906F905F904F9076
:1032A0003F902F90CCC98091B93481110DC080918D
:1032B000C1369091C23669E970E0892B09F464C384
:1032C0008091B9348F5F2AC28091C6348330C0F0B8
:1032D0008091BF34813049F41092C1361092C236C9
:1032E0001092BF361092C036B1CF50F41092C13652
:1032F0001092C2361092BF361092C03689E0A6CF27
:103300008FEB96E30E94A308811511F40C94982486
:103310001092C1361092C2361092BF361092C0364B
:103320008091C734833350F787E090CF8091B934D0
:1033300081111EC04091C934469546954C71E12CCF
:1033400001E027E06CEC74E381E00E940410C82FD8
:10335000813009F054CF1092C6341092C73460E225
:1033600070E08FEB96E30E948708C093073547CF44
:1033700080911236811561F11092123680910C35D0
:103380008077803109F0F9C180910B358F718230DF
:1033900009F0F3C18BE00E94F10680910B3594E0B7
:1033A000989F912D1124803C08F092E08091043583
:1033B000981718F490930435892F813009F01FCFA6
:1033C00090910535923009F01ACF8093053517CFCB
:1033D0008FEB96E30E94A308811511F40C949824B6
:1033E0001092123683E032CF1092A1351092A2359E
:1033F0001092A3351092A4358091B6348111FFCE7E
:1034000081E08093A73480919934982F9F709730F2
:1034100009F4F5CE807F87608093993429E934E3FD
:1034200041E06BE080918E34DF91CF911F910F913D
:10343000FF90EF90DF90CF90BF90AF909F908F90D4
:103440007F906F905F904F903F902F900C9462050B
:10345000DF91CF911F910F91FF90EF90DF90CF9070
:10346000BF90AF909F908F907F906F905F904F90A4
:103470003F902F90D5C9E0911835E295E770E15063
:103480008091C93482958770E81708F054C024E011
:10349000E29FF0011124E453FB4C4381842F807C94
:1034A000803C99F5809115358F7790819F7798179B
:1034B00008F441C09091163596958091173580FBA0
:1034C000CC27C7F9C92B8695D82FD770A18125E0C5
:1034D00030E0B0E00E941935C617D7071806190664
:1034E00050F18281869540FB442747F9482BA42F51
:1034F0000E9419356C177D0781059105E0F08EE07B
:103500000E94F1061092A7347ACE909116359695C6
:1035100096958091173520E4289F202D1124292B82
:1035200086958695382F337080814181942F9370D2
:1035300082179307E3CF8CE0E3CF8091BF3420E084
:1035400040E06DE0811539F08091C03420E040E02A
:1035500063E081116FE084E099C08091B6348111FD
:1035600029C081E08093A734809198348F7D809327
:103570009834C0918E3428E934E341E06AE08C2F1E
:103580000E94620580919C348E7F80939C342CE94C
:1035900034E341E06EE08C2F0E94620580919D34FF
:1035A0008E7F80939D342DE934E341E06FE08C2FD2
:1035B0000E9462058091B934811509F420CEB4CE01
:1035C000DF91CF911F910F91FF90EF90DF90CF90FF
:1035D000BF90AF909F908F907F906F905F904F9033
:1035E0003F902F90EBC9DF91CF911F910F91FF90EA
:1035F000EF90DF90CF90BF90AF909F908F907F9093
:103600006F905F904F903F902F900C948B0940915A
:10361000C934469546954C71E12C00E02FE06CECE6
:1036200074E381E08EC08091B93481110CC020E038
:1036300041E061E188E00E94F90D813009F0DFCDC1
:1036400060E270E084C280911236811589F0109298
:10365000123680910C35807709F48FC080910B353C
:103660008F71843009F089C080E00E94E40508C0B1
:103670008FEB96E30E94A308811511F40C94982413
:103680008FE0E4CD20E040E06FE085E0DF91CF9176
:103690001F910F91FF90EF90DF90CF90BF90AF9070
:1036A0009F908F907F906F905F904F903F902F9062
:1036B0000C94F90D80911236811579F01092123622
:1036C00080910C35807709F09ACD80910B358F7100
:1036D0008D3009F094CD84E0B9CD8091B934823039
:1036E00099F038F481114EC120E041E063E182E0BD
:1036F000CDCF833011F40C943224843071F020E06B
:1037000040E06FE086E0C2CF8FEB96E30E94A30813
:10371000811511F40C949824D3CD85E08093B934AD
:103720006ECD80917334823009F0F3C64091CB3472
:10373000469546954C71E12C00E02FE068EE74E36D
:1037400084E00E9404105BCD8091B93420E041E018
:1037500065E1811509F482C780911236811509F45B
:1037600087CF1092123680910B358F7190910C3566
:10377000907729F0813009F478CF85E067CD8430E7
:1037800011F08031D1F784E261CD8091B93481119B
:103790000CC020E041E066E189E00E94F90D813033
:1037A00009F02DCD109286344BCF809112368115C1
:1037B00009F45ECF1092123680910C358077E9F6CD
:1037C00080910B358F71833021F0843009F458CF0C
:1037D000D4CF81E09091BE34913009F480E08093A1
:1037E000BE349091913480FB94F990939134C091C0
:1037F0008E3421E934E341E063E08C2F0E946205BE
:1038000080910435813009F03BCF809195348C7FD5
:103810008093953425E934E341E067E08C2F0E94E2
:1038200062052ECF20910F3640E06FE083E00E94CA
:10383000F90D813009F0E3CCDF91CF911F910F9109
:10384000FF90EF90DF90CF90BF90AF909F908F90C0
:103850007F906F905F904F903F902F900C943E061A
:10386000DF91CF911F910F91FF90EF90DF90CF905C
:10387000BF90AF909F908F907F906F905F904F9090
:103880003F902F900C94AA0EDF91CF911F910F9132
:10389000FF90EF90DF90CF90BF90AF909F908F9070
:1038A0007F906F905F904F903F902F900C946D0F92
:1038B0008091B934833009F479C0B0F48130D1F10A
:1038C000823061F58FEB96E30E94A308811511F415
:1038D0000C9498240E949A0B0E948A0481E00E9412
:1038E00091046CEB72E050C0843009F482C08530E2
:1038F00009F48EC08FEB96E30E94A308811511F4A2
:103900000C9498248EE10E94F1061092C136109218
:10391000C2361092BF361092C03671CC20E041E022
:1039200060E38AE00E94F90D813009F068CC1092C2
:10393000893486CE90911236911559F11092123633
:1039400090910C35907709F018CF90910B35292F75
:103950002F719771943021F1233009F00ECF8093AD
:10396000C2341092BF3486E59EE08093B4349093C5
:10397000B53420E030E040918E34C90160E170E060
:103980000E946A0569E170E08FEB96E30E94870868
:1039900097CC8FEB96E30E94A308811509F4C8C762
:1039A0008FE00E94F1061092C23429CC0E940A14C2
:1039B0008115A9F00E94F00880E00E949104109205
:1039C000BD34809191348F778093913421E934E331
:1039D00041E063E080918E340E94620571CC8FEBF0
:1039E00096E30E94A308811511F40C94972581E0B9
:1039F0002DCC20E045E060E386E00E94F90D6DEB00
:103A000071E0813009F4A3C0823009F0F8CBEFCF28
:103A100080911236811591F01092123680910C35FA
:103A2000807709F0ECCB80910B358F71863009F0EF
:103A3000E6CB8093B93464E170E089C08FEB96E304
:103A40000E94A308811509F473C7D1CF8091B934BE
:103A5000833009F47FC088F4813009F433CF823099
:103A600039F50E940A14811509F4B9CF69E170E0B3
:103A70008FEB96E30E948708A2CF843009F475C0CB
:103A8000853009F476C08FEB96E30E94A308811578
:103A900009F44EC78EE10E94F1061092C1361092D1
:103AA000C2361092BF361092C03610928A34A7CB1D
:103AB00020910F3680917334823021F49091CF346D
:103AC00095FD02C040E046CD8091083581110BC0C4
:103AD00040E065E18CE00E94F90D813009F08FCB68
:103AE000809308358CCB8091AC3585FF04C093FF63
:103AF0000DC0887C59F440E06FE084E00E94F90D2D
:103B0000813009F07CCB1092083579CB41E061E33C
:103B100083E00E94F90D813009F071CB8093C234AB
:103B2000109208351092BF3486E59EE08093B4343D
:103B30009093B53420E030E040918E34C90160E1CB
:103B400070E00E946A050E94F00869E170E08FEB66
:103B500096E317C48FEB96E30E94A308811509F43E
:103B6000E7C680E00E949104ABCB20E045E061E332
:103B700043CF80911236811591F0109212368091C8
:103B80000C35807709F03BCB80910B358F718630F7
:103B900009F035CB8093B9341092C2344CCF8FEBFF
:103BA00096E30E94A308811509F4C2C61092C2349C
:103BB00081E0A6CC809118358A7709F461CD25E1A2
:103BC00035E340918E3460E074E080E090E00E9444
:103BD0006A0556CD8091B4349091B53464EA71E0B1
:103BE0000E94343561506F736064809192348078A4
:103BF000862B80939234C0918E3422E934E341E0E5
:103C000064E08C2F0E946205809198348D7E8093B1
:103C1000983428E934E341E06AE08C2F0E94620581
:103C200080919C34827E80939C342CE934E341E083
:103C30006EE08C2F0E94620580919D348E7F809370
:103C40009D342DE934E341E06FE08C2F0E94620542
:103C500080918F34807F803809F05BC080919534EB
:103C600082FF0AC08B7F8093953425E934E341E0DD
:103C700067E08C2F0E9462051092A1351092A23548
:103C80001092A3351092A4351092A9351092AA353E
:103C90001092AB351092AC351092C2341092BD34F4
:103CA00010920635809191348F778093913421E979
:103CB00034E341E063E08C2F0E94620580E00E94C3
:103CC000990680919134846080939134C0918E34B0
:103CD00021E934E341E063E08C2F0E94620580918A
:103CE00099348F608093993429E934E341E06BE0A3
:103CF0008C2F0E9462051092C7341092C534109226
:103D0000C1361092C2361092BF361092C0368FE183
:103D10009DCA8091973485FFAFCF8F7D8093973474
:103D200027E934E341E069E0A4CF20E040E060E22D
:103D300083E00E94F90D813009F061CA60E072E011
:103D400006CF8091B934811113C020E041E06CE1CD
:103D50008DE00E94F90D813009F051CA60E270E0F7
:103D60008FEB96E30E94870881E08093073547CA6E
:103D700080911236811509F42BC110921236809170
:103D80000C35807709F03AC380910B358F71833001
:103D900009F034C380E20E94F106D0CF8091B9349B
:103DA000813009F484C0823009F4B2C08111AEC000
:103DB00080919934807F876080939934C0918E344C
:103DC00029E934E341E06BE08C2F0E946205809189
:103DD0009234807881648093923422E934E341E024
:103DE00064E08C2F0E94620581E08093C1341092C0
:103DF000BF3480918C34809304358093053586E5FB
:103E00009EE08093B4349093B53420E030E04C2FA2
:103E1000C90160E071E00E946A0520E030E0409155
:103E20008E34C90160E170E00E946A056CEB72E0BB
:103E30008FEB96E30E9487088091BE348115E1F0F4
:103E40001092BE34809191348F7E80939134C091D2
:103E50008E3421E934E341E063E08C2F0E94620557
:103E6000809195348C7F8093953425E934E341E04B
:103E700067E08C2F0E9462058091C334811579F030
:103E8000809190348F7C8093903420E934E341E03A
:103E900062E080918E340E9462051092C3340E94C9
:103EA00084060E946F0681E00E94990609CA8091EB
:103EB000A53485FF1CC08CEE94E00E94D6128111BF
:103EC00016C08091B9348F5F8093B9348091923459
:103ED00080788A648093923422E934E341E064E09C
:103EE00080918E340E94620569E175E030CE8FEBDF
:103EF00096E30E94A308811509F41AC51092C136F1
:103F00001092C2361092BF361092C0368EE19EC912
:103F10008091A53485FFEBCF8EE892E10E94D61206
:103F2000811529F31092C1361092C2361092BF3615
:103F30001092C036C5C98EE892E10E94D612811552
:103F400041F01092C13480E20E94F10666E671E011
:103F5000FECD6AE070E08FEB96E3EDC580911236FE
:103F6000811569F11092123680910B358F71909105
:103F70000C359077F9F0813009F041C90E94E405D1
:103F800080910B3594E0989F912D1124803C08F08E
:103F900092E080910435981718F490930435892F96
:103FA000813031F490910535923011F480930535CC
:103FB00081E24CC98D3009F022C98BE147C980915B
:103FC000C6349091BF34913059F4833008F00FCD4E
:103FD0008FEB96E30E94A308811509F4A9C40EC2D1
:103FE000833008F0A5C4F4CF1092C6348091CB344E
:103FF00082958770E8EEF4E340E050E060E06813FB
:10400000BFC082E3849F1001859F300C1124209251
:10401000793430927A34C0911235C295C770E12C50
:10402000F12C4701540164012401340100E01AE03D
:10403000DE2DEC1608F4B8C0011509F484CFC114C4
:10404000D10409F480CF802F8150990BFC01EE0F31
:10405000FF1FEE0FFF1FE459FA4CC081C295C695B1
:10406000C695C37081E0C33009F080E080930635C7
:104070008091693590916A35A0916B35B0916C351E
:104080008093A9359093AA35A093AB35B093AC3506
:104090001092A5351092A6351092A7351092A8352A
:1040A000D091763480917834880F827090917734F3
:1040B0009170892BD0FB992793F9892B0295007F6A
:1040C000082B0B770093A835A12CB12C20917F34BD
:1040D000309180344091813450918234A8EEB3E025
:1040E0000E9483359601A5010E945B35C33009F01B
:1040F000ADC0C90162E370E00E9434356F778091F2
:10410000A5358078862B8093A535C60164E170E0E3
:104110000E943435862F880F8093A6357770770FED
:1041200067FD71607093A735D11128C04216530600
:1041300028F58091A83584608093A8358091E83473
:104140002091E9348093A535C2016AE070E00E94B5
:104150003435862F880F880F2370822B8093A635E5
:1041600062956695669563708091A735807F7370C0
:10417000770F770F682B672B6093A73582E266C8AD
:10418000718176957695928120E4299F202D1124C6
:10419000272B96959695392F33704217530708F4BD
:1041A000A9016F5F34962BCFF701EE0FFF1FEE0FC3
:1041B000FF1FDF01A459BA4C8C9182958695869594
:1041C000837009F03FC0E659FA4C30813695369538
:1041D000218180E4829F802D1124832B26952695B2
:1041E000922F937022E3289F3001299F700C112495
:1041F0002614370418F1F701EE0FFF1FEE0FFF1F13
:10420000E759FA4C808191819370189F2001199F82
:10421000500C11249301D2010E94193528EE33E08D
:1042200040E050E00E945B35281539054A055B05E2
:1042300028F001E00D0F49015A0163018FEFE81AE0
:10424000F80AF6CE20E030E0A901EECF0AE010E057
:10425000C901B8010E943435C62F7370770F770FEC
:1042600084E08C9F812D1124872B8093A73520918A
:104270007B3430917C3440917D3450917E34A8EE73
:10428000B3E00E9483359601A5010E945B35C90108
:10429000B8010E9434356093A5357370CC0FCC0FF4
:1042A000C72BC093A63540CF8091B9348130F0F050
:1042B00011F00C94FF1880911236811509F488CE04
:1042C0001092123680910B358F7190910C3590774A
:1042D00009F077C08C3009F468C090F48330A1F005
:1042E000843009F462C08CE10C942619E12C01E0C1
:1042F00022E244E065EA75E382E00E9404102BCDDF
:104300008D3009F45ACEEFCFE091A835E295E770F1
:10431000E150FF0BEE0FFF1FEE0FFF1FE459FA4CA9
:104320008081829586958695837091E0833009F02F
:1043300090E09093063581E08093BF348091A5355D
:104340009091A635A091A735B091A8358093A1355D
:104350009093A235A093A335B093A43560E072E0AA
:104360008FEB96E30E94870883E20E94F10680911A
:104370000635813011F00C94FF1860E078E28EEC85
:1043800096E3DF91CF911F910F91FF90EF90DF9017
:10439000CF90BF90AF909F908F907F906F905F90E5
:1043A0004F903F902F900C9487088091BF348111DB
:1043B000EAC980E20E94F10683E08093C6340C943F
:1043C000FF18813009F08FCF81E00E94E405F0CD25
:1043D0001092A73480911236811509F4F9CD10920C
:1043E000123680910B358F7190910C35907709F0D2
:1043F00052C0863031F08D3009F4DFCD8AE10C9463
:10440000261984E20E94F10621EA35E340918E34B8
:1044100068E070E080E090E00E946A0580910635D7
:104420008115C1F03091A23536952091A33520FB3E
:10443000882787F9832B2695922F977082959295DE
:10444000907F9827807F98278093B4349093B534D9
:104450000C94FF183091AA35369536952091AB35DE
:1044600080E4829F802D1124832B26952695922F00
:1044700093708436910519F486E59EE0E5CF48E215
:10448000489F9001499F300D11242093B4343093FC
:10449000B5340C94FF18813009F0B0CF95CF8091DE
:1044A0001236811509F45EC01092123680910C35D7
:1044B000982F9077E1F4E0910B35EF71E250EF30F7
:1044C00040F5F0E0EA59F94C0C947D3583E263CC79
:1044D00085E20C94261988E20C9426198BE20C9440
:1044E000261983E30C9426198FE20C94261987FF72
:1044F00013C0309115353093F13620911635209345
:10450000F236832F922F91704B9718F081E08093B1
:10451000F33686E30C94261980910B358F71843025
:1045200011F40C94FF18C8F4813009F44DCF833096
:1045300081F7DF91CF911F910F91FF90EF90DF9066
:10454000CF90BF90AF909F908F907F906F905F9033
:104550004F903F902F900C9417088630D1F68AE246
:104560000C9426198091C4348115B1F1E0910F3576
:10457000EF71809110358077D9F4E750EE3040F438
:10458000F0E0EB58F94C0C947D3586E20E94F10680
:104590001092C4340C94FF1887E2F8CF89E2F6CF6A
:1045A0008EE2F4CF82E3F2CF8CE1F0CF87E3EECF5F
:1045B000E23071F780914D3590914E35A0914F3595
:1045C000B09150358093A5359093A635A093A7352B
:1045D000B093A83582E2DACF80917334823059F4F7
:1045E00080918A34811539F08091AC3585FF03C004
:1045F00082E30C94261980918534813039F48091BE
:10460000BE34811103C089E20C942619809187344D
:10461000813039F48091C334811103C08EE20C944F
:10462000261980910635813009F082C18EEC96E31F
:104630000E94A308811509F47BC1A0CD4091CB3421
:10464000469546954C71E12C00E024E277C88091B4
:10465000B934811106C020E041E066E287E00C94A5
:104660001B1B80911236811571F0109212368091C9
:104670000C35807709F437CE80910B358F718130FE
:1046800009F031CEA2CE8FEB96E30E94A3088115EC
:1046900009F44EC178C88091B93420E041E067E266
:1046A000811511F40C941A1B80911236811559F35F
:1046B0001092123680910B358F7190910C35907756
:1046C00011F0843004C0843009F45DC8803109F0F1
:1046D0000ACE59C880917334823009F01ACF4091C4
:1046E000C934469546954C71E12C00E024E20C94C7
:1046F0000F1B8091B93481110EC020E041E069E2C6
:1047000089E00E94F90D813011F00C94FF1810928D
:1047100085340C94201B80911236811509F4B3CF97
:104720001092123680910C35807709F0DCCD8091A3
:104730000B358F71833029F681E09091BE34913032
:1047400009F480E08093BE349091913480FB94F919
:1047500090939134C0918E3421E934E341E063E0D9
:104760008C2F0E94620580910435813009F00BC8BE
:10477000809195348C7F8093953425E934E341E032
:1047800067E08C2F0E9462050C94C31B20E040E080
:1047900064E24CC88091B934823009F442C080F49C
:1047A000811124C020E041E06EE28BE00E94F90D0F
:1047B000813011F00C94FF18109287340C94201B58
:1047C000833009F452C0843061F48FEB96E30E9489
:1047D000A308813009F0ACC08091B9348F5F809319
:1047E000B93420E040E064E20C94821B80911236E0
:1047F000811509F448CF1092123680910C358077DC
:1048000009F071CD80910B35982F9F71877184309D
:1048100011F40C94C31B933009F065CD82E00C9425
:104820008E1B8091C334811519F06CE570E0ACC823
:1048300081E08093C33480910435823069F48091A3
:1048400095348C7F8093953425E934E341E067E02B
:1048500080918E340E94620564E170E08FEB96E3F4
:104860000E94870884E00C948E1B8091123681157B
:1048700009F4AECB1092123680910C35807711F08E
:104880000C94FF1880910B358F71863011F00C94C9
:10489000FF18809190348C7C836080939034C09119
:1048A0008E3420E934E341E062E08C2F0E946205FF
:1048B0001092C33480910435823058CF8091B9343E
:1048C000823059F138F4811107C020E041E06FE2F5
:1048D0000C943E19833078CF8091C3348111A5CFD9
:1048E00081E08093C33480910435823069F48091F3
:1048F00095348C7F8093953425E934E341E067E07B
:1049000080918E340E94620564E170E08FEB96E343
:104910000E94870883E00C948E1B809112368111CF
:10492000A9CF8FEB96E30E94A30881110C94F21992
:1049300081E08093A7340C94FF188091B9348330C0
:1049400009F4ECC060F5813009F441C0823089F58A
:1049500080911236811509F471C810921236809137
:104960000C35807711F00C94FF1880910B358F7106
:10497000863011F00C94FF180E94911681E080930C
:10498000BD348091913480688093913421E934E37F
:1049900041E063E080918E340E946205C3CA843096
:1049A00009F44BC0853009F450C01092B9340C940E
:1049B000FF1820E041E062E38AE00E94F90D8130B7
:1049C00011F00C94FF1810928A340C94201B9091D3
:1049D0001236911541F11092123690910C35907764
:1049E00009F081CC90910B35292F2F71977194305C
:1049F00009F1233009F077CC8093C2341092BF3490
:104A000086E59EE08093B4349093B53420E030E0A6
:104A100040918E34C90160E170E00E946A0567E54B
:104A200073E00C94C41C8FEB96E30E94A3088115DD
:104A300009F47ECF84E20C94D11C8FEB96E30E94A4
:104A4000A308811509F474CF6DCA20E040E066E048
:104A500086E00E94F90D823011F40C94F71C81302D
:104A600011F00C94FF1869E170E089EC96E389CCB1
:104A70008091B934823009F451C080F4811168CF3B
:104A800080917334823021F480916C3585FD25C08E
:104A900020910F3640E064E20C94AB1A833069F247
:104AA000843009F082CF20E040E066E086E00E949A
:104AB000F90D823011F40C94F71C813011F00C9434
:104AC000FF181092C23469E170E089EC96E30E940D
:104AD0008708109289340C94FF1881E08093C234C7
:104AE00020E041E063E383E00E94F90D813011F0A2
:104AF0000C94FF181092BF3486E59EE08093B43486
:104B00009093B53420E030E040918E34C90160E1EB
:104B100070E00E946A0567E573E019C88EE892E1CB
:104B20000E94D61265E070E081110C94C41C6AE00A
:104B300070E083ED96E30E948708FACE80911835E5
:104B40008E7311F40C94C31B25E135E340918E3430
:104B500060E074E080E090E00E946A050C94C31B62
:104B600080910435813059F420910F368091BD3405
:104B70006FE0811101C064E240E00C94AB1A8091B7
:104B8000B934813068F001F120910F368091BD3445
:104B90006FE0811101C064E240E080E10C94461BAB
:104BA0008091F336813009F039CE68E270E08FEB06
:104BB00096E30E9487088091B9348F5F8093B9345F
:104BC0001092F3360C94FF188FEB96E30E94A30823
:104BD000811511F40C94FF181092C1361092C23650
:104BE0001092BF361092C0368091B9348F5F809397
:104BF000B934CACF8091B934813059F1823009F487
:104C000040C080919534806180939534C0918E34FA
:104C100025E934E341E067E08C2F0E946205809132
:104C2000943481608093943424E934E341E066E075
:104C30008C2F0E946205809194348E7F80939434EF
:104C400063E370E08FEB96E30E94870881E00C94A9
:104C50008E1B8FEB96E30E94A308811509F468CEA2
:104C6000809195348F7E8093953425E934E341E03B
:104C700067E080918E340E94620564E170E00C94DC
:104C8000C41C8FEB96E30E94A308811509F450CE53
:104C90000E9484068091BD3481110C94F219AECB30
:104CA00080918F34807F803809F042CE25E934E34B
:104CB00041E067E080918E340E94620539CE809198
:104CC000B93481112DC080910F3520E041E06AE7B1
:104CD0008F710E94F90D813011F40C94201B8230E9
:104CE00011F00C94FF188091BD34811511F40C94CF
:104CF000C31B0C94401B8091B934811111C04091A9
:104D00001035469546954C7180910F35E090BA3438
:104D100001E02BE76DE475E38F710E940410DBCF97
:104D200080911236811519F010921236DCCF8FEB7C
:104D300096E30E94A308811509F4FACDD4CFCF934E
:104D4000DF930F92CDB7DEB781E08093A634109247
:104D5000B6340E949A0B0E948A0481E00E9491045A
:104D6000809196348E7F8093963426E934E341E037
:104D700068E080918E340E9462058AE18093B234AB
:104D80001092B33483E08093AF340E94590980912C
:104D90009234807884628093923480918E348983B7
:104DA00022E934E341E064E00E94620581E08093FF
:104DB000AD3480919934807F87608093993429E95C
:104DC00034E341E06BE089810E94620580918F3479
:104DD000807F803869F187EC8093903420E934E358
:104DE00041E062E089810E94620581E08093B034F5
:104DF0000E94B1118093A83482508330D8F48091FE
:104E000098348E7D8093983428E934E341E06AE059
:104E100080918E340E9462051092B7361092B83697
:104E20001092B5361092B6360F90DF91CF9108955B
:104E300087E4D2CF82E08093B03480918F34807F3A
:104E40008038B1F08BEC8093903420E934E341E07A
:104E500062E080918E340E9462050E94B1118093BD
:104E6000A8348250833058F20F90DF91CF914EC01A
:104E70008BE8E9CF81E08093A63485E08093B2345B
:104E80001092B3348091B63491E0980F9093B63479
:104E9000853108F054CF0E949A0B0E947D128091B8
:104EA0009434982F9C709C3059F08C60809394348B
:104EB00024E934E341E066E080918E340E9462058B
:104EC0000E947509809196348E7F8093963426E9EE
:104ED00034E341E068E080918E340E9462050E94D4
:104EE000BA110E947D12809198348F7D80939834FE
:104EF00028E934E341E06AE080918E340E94620543
:104F000064E170E085EB96E30C948708CF93DF9320
:104F10000F92CDB7DEB780917334813009F07AC03B
:104F20008093A6348BE18093B2341092B3340E9404
:104F3000081880918E34898380919934982F9F70BE
:104F4000973059F0807F87608093993429E934E362
:104F500041E06BE089810E94620580919434982F32
:104F60009C70943059F0837F84608093943424E95A
:104F700034E341E066E089810E9462058CEC809315
:104F8000903420E934E341E062E089810E946205C7
:104F900080919234807885628093923422E934E360
:104FA00041E064E089810E946205809198348F7DA0
:104FB0008093983428E934E341E06AE089810E94D3
:104FC00062051092B7361092B8361092B53610922C
:104FD000B63666E670E08AEB96E30E94870889E1C0
:104FE0000E94AB0B23EA34E341E060E480918E340D
:104FF0000E9466058091A33485FD80C01092BC3666
:105000001092BD361092BA361092BB360F90DF91D7
:10501000CF9130CF81E08093A63482E08093B23488
:105020001092B3340E940818809196348E7F80933A
:10503000963480918E34898326E934E341E068E038
:105040000E946205809192348F7B8093923422E992
:1050500034E341E064E089810E94620580919C34E0
:105060008F7B80939C342CE934E341E06EE08981AE
:105070000E94620580919434982F9C70943059F06E
:10508000837F84608093943424E934E341E066E0D4
:1050900089810E94620580917334823059F1813098
:1050A00059F182E0880F90919634997F892B8093F3
:1050B000963489E10E94AB0B809196348160809395
:1050C000963424E934E343E066E080918E340E9414
:1050D00062051092B7361092B8361092B53610921B
:1050E000B63666E670E08AEB96E30F90DF91CF91DB
:1050F0000C94870881E0D6CF83E0D4CF0F90DF9166
:10510000CF910895CF93DF930F92CDB7DEB7109272
:10511000A63483E08093B2341092B3348091B634D5
:1051200091E0980F9093B634853120F00F90DF9185
:10513000CF9105CE0E94F916809196348E7F809390
:10514000963480918E34898326E934E341E068E027
:105150000E946205809198348F7B8093983428E96F
:1051600034E341E06AE089810E9462058EE892E1C1
:105170000E94D612811519F081E08093B73423EA9A
:1051800034E341E060E480918E340E9466058091B2
:10519000A334837021F40F90DF91CF91B7CE0F909D
:1051A000DF91CF9108951F920F920FB60F921124A5
:1051B0002F933F934F935F936F937F938F939F931F
:1051C000AF93BF93EF93FF931B9B09C0809108049B
:1051D00062E083FF60E080E790E00E9491351C9BD5
:1051E00011C08091080484FF31C08091093481117D
:1051F0002DC00E948C00809307349093083481E086
:10520000809309341D9B0AC0809115048A7F809386
:105210001504809166348460809366341E9B03C0BD
:1052200081E0809364348FEF83B9FF91EF91BF9158
:10523000AF919F918F917F916F915F914F913F912E
:105240002F910F900FBE0F901F90189580910934E9
:105250008115C1F20E948C002091073430910834EE
:10526000821B930B109209349C0123533109253B77
:10527000334040F4E0916234F0916334309711F29E
:105280000995C0CF893E934008F4BCCF61E081E42A
:1052900090E00E949135B6CF1F921FB61F92112445
:1052A0008F935B9B09C08091480483FF0CC0809161
:1052B00066348D7F809366348FEF8BB98F911F900A
:1052C0001FBE1F901895809166348260809366346B
:1052D00010920634109205341092C408EDCF1F923C
:1052E0000F920FB60F9211242F933F934F935F931A
:1052F0006F937F938F939F93AF93BF93EF93FF939E
:1053000080915301816080935301809102348F5FBB
:1053100080930234809102348C33D0F010920234A6
:10532000809101348F5F80930134809101348C33FC
:1053300068F010920134809100348F5F80930034C4
:1053400080910034883110F0109200340E94BF0028
:10535000FF91EF91BF91AF919F918F917F916F914D
:105360005F914F913F912F910F900FBE0F901F9023
:1053700018958F938FB78F938091430181FF0AC057
:1053800080914301826080934301809142018D7F2F
:10539000809342018F918FBF8F9118951F920F922A
:1053A0000FB60F9211242F933F934F935F936F93F8
:1053B0007F938F939F93AF93BF93EF93FF938091CE
:1053C000C30887FF14C08091C408909106349111DE
:1053D00023C087FF1DC010920534982F9F709093B3
:1053E0000634909105349115B9F01092C408FF91DC
:1053F000EF91BF91AF919F918F917F916F915F914D
:105400004F913F912F910F900FBE0F901F901895C5
:1054100091E090930534E1CF90910534911509F412
:105420004BC090910634923069F4982F92959F70FA
:105430008F702AE0929F800D112480930234109285
:10544000C40848C090910634933059F4982F92952F
:105450009F708F702AE0929F800D112480930134F9
:10546000EECF90910634943059F4982F92959F7016
:105470008F702AE0929F800D112480930034DFCF3B
:10548000909106349D30D9F6282F86FD13C02F77D2
:1054900042EB51E02403C001259F900D112464E6E6
:1054A00070E00E94483582E190E00E948D350E94B4
:1054B0009800C5CF2068ECCF80910634823081F40B
:1054C000809102346AE00E9428358295807F892B82
:1054D0008093C408809106348F5F8093063487CF11
:1054E00080910634833019F480910134EBCF8091A0
:1054F0000634843009F0A3CF80910034E3CFCDB7D8
:10550000DEB76F97CDBFDEBF60E080E690E00E941F
:10551000913560E081E690E00E94913561E082E69D
:1055200090E00E94913560E080E790E00E94913524
:1055300088EDA89584BF80910001807F8093000151
:1055400083E08093210484E08093A0088DEF809312
:10555000A50884E18093A6088DE08093A3080E94AB
:10556000980A0E943E0280910014909101148535A2
:10557000934451F0FBE0EF2E04E025E045E060E0CD
:1055800081E00E945902FFCF81E08093130482E002
:105590008093410481E8809353048091E305816006
:1055A0008093E3058091C20881608093C208809156
:1055B000C00881608093C00860E08CE790E00E94A2
:1055C00091358091630086FDFCCF63E08CE790E02D
:1055D0000E94913582E0809347018091410180FDD6
:1055E000FCCF89EA809340010E94BF0084E0809351
:1055F00001048BE08093910182E08093A901809166
:10560000510180FDFCCF81E0809350011092520146
:1056100089E8809314047894809140008FEF809300
:105620004000E0900414F0900514C0900614D0904F
:10563000071488E88093160480E88093010480931F
:1056400005048093170465E489E00E94D20181116A
:105650000AC0EBE0EE2E03E025E045E060E081E0EB
:105660000E945902FFCF8FE392E4AFE08150904057
:10567000A040E1F700C00000C601805B9643813C7A
:10568000924108F4F2C263E0E0E1CE16E7E2DE0602
:1056900000F36A956295660F660F607C63628AE02C
:1056A0000E94D201182F6AE180E00E94D2011823E3
:1056B0007AE0A72EB12CC601B5010E94343581E0F5
:1056C0000E9407021823C701B5010E94343583E008
:1056D0000E940702182365E888E00E94D20118237F
:1056E0006BE48DE00E94D201182362E98FE00E94F2
:1056F000D201182360E080E10E94D201182360E00B
:1057000081E10E94D201182368EF81E10E94D20159
:10571000182364E382E10E94D201182361E183E14E
:105720000E94D201182364E184E10E94D20118236F
:1057300069EF88E20E94D20118236FE789E20E9494
:10574000D20118236FE78AE20E94D201182360E198
:105750008BE20E94D20190911604926090931604FD
:10576000111509F476CF811509F473CF4091111406
:1057700081E0482761E088E10E9468048091031479
:10578000823009F081E08093613410928D3492E28E
:1057900090938E3480938C348093043580930535B8
:1057A0001092793410927A3480E395E780937B34B9
:1057B00090937C3410927D3410927E3480937F34A9
:1057C0009093803410928134109282341092763407
:1057D000109277341092783453E0D52ED0928B34D7
:1057E00062E0C62EC09273341092743410927534F5
:1057F00001E009837E01FFEFEF1AFF0A970141E004
:105800006CE082E20E9462052FE834E341E061E04F
:1058100082E20E94660520E934E341E062E0809183
:105820008E340E94660521E934E341E063E0809113
:105830008E340E94660522E934E341E064E0809101
:105840008E340E94660523E934E341E065E08091EF
:105850008E340E94660524E934E341E066E08091DD
:105860008E340E94660525E934E341E067E08091CB
:105870008E340E94660526E934E341E068E08091B9
:105880008E340E94660527E934E341E069E08091A7
:105890008E340E94660528E934E341E06AE0809195
:1058A0008E340E94660529E934E341E06BE0809183
:1058B0008E340E9466052AE934E341E06CE0809171
:1058C0008E340E9466052BE934E341E06DE080915F
:1058D0008E340E9466052CE934E341E06EE080914D
:1058E0008E340E9466052DE934E341E06FE080913B
:1058F0008E340E9466052FE934E341E06CE3809129
:105900008E340E94660520EA34E341E06DE3809125
:105910008E340E94660521EA34E341E06EE3809113
:105920008E340E94660522EA34E341E06FE3809101
:105930008E340E94660523EA34E341E060E48091FE
:105940008E340E94660524EA34E341E061E48091EC
:105950008E340E94660525EA34E341E062E48091DA
:105960008E340E946605BA94B092983410918E34A9
:1059700028E934E341E06AE0812F0E946205B09299
:105980009C342CE934E341E06EE0812F0E946205F3
:1059900080919D34816080939D342DE934E341E012
:1059A0006FE0812F0E946205809194348F7D8093F7
:1059B000943424E934E341E066E0812F0E946205DB
:1059C000809196348F71806C8093963426E934E30D
:1059D00041E068E0812F0E94620580919E348E7FB5
:1059E00080939E342EE934E341E060E1812F0E94F0
:1059F00062050093A6341092B2341092B33486E557
:105A00009EE08093B4349093B5341092B0341092E9
:105A1000B73485E08093A8348093A9348093AA3466
:105A20008093AB348093AC341092AE3482E1809397
:105A3000A0368093A1368093A23683E18093A3366B
:105A400082E88093A43681E88093A5361092A6362A
:105A5000B092A73684E18093A8368EEF8093A93662
:105A600010929F361092C0341092C1341092C234FA
:105A7000109207350093A7341092BB340093BC34C6
:105A800030E43093C93480918C348295880F880F2C
:105A9000807C982F91609093C834FE0132969BE1F0
:105AA000DF011D929A95E9F72CE2298391E99A8307
:105AB0009B81907F91609B839C819A6090629C8384
:105AC0002D8391ED9E839F81907F92609F835AEFFB
:105AD000598740EC4A879B859360937F9B8778EC3E
